{
  "_format": "hh-sol-artifact-1",
  "contractName": "MessageBoard",
  "sourceName": "contracts/MessageBoard.sol",
  "abi": [
    {
      "inputs": [],
      "stateMutability": "nonpayable",
      "type": "constructor"
    },
    {
      "anonymous": false,
      "inputs": [
        {
          "indexed": false,
          "internalType": "address",
          "name": "sender",
          "type": "address"
        },
        {
          "indexed": false,
          "internalType": "string",
          "name": "content",
          "type": "string"
        }
      ],
      "name": "NewMessage",
      "type": "event"
    },
    {
      "inputs": [],
      "name": "getAllMessages",
      "outputs": [
        {
          "components": [
            {
              "internalType": "address",
              "name": "sender",
              "type": "address"
            },
            {
              "internalType": "string",
              "name": "content",
              "type": "string"
            }
          ],
          "internalType": "struct MessageBoard.Message[]",
          "name": "",
          "type": "tuple[]"
        }
      ],
      "stateMutability": "view",
      "type": "function"
    },
    {
      "inputs": [
        {
          "internalType": "string",
          "name": "_content",
          "type": "string"
        }
      ],
      "name": "saveMessage",
      "outputs": [],
      "stateMutability": "nonpayable",
      "type": "function"
    }
  ],
  "bytecode": "0x608060405234801561001057600080fd5b506100596040518060400160405280601e81526020017f74686973206973206d65737361676520626f61726420636f6e7472616374000081525061005e60201b6102f41760201c565b6101e1565b6100fa81604051602401610072919061015f565b6040516020818303038152906040527f41304fac000000000000000000000000000000000000000000000000000000007bffffffffffffffffffffffffffffffffffffffffffffffffffffffff19166020820180517bffffffffffffffffffffffffffffffffffffffffffffffffffffffff83818316178352505050506100fd60201b60201c565b50565b60008151905060006a636f6e736f6c652e6c6f679050602083016000808483855afa5050505050565b600061013182610181565b61013b818561018c565b935061014b81856020860161019d565b610154816101d0565b840191505092915050565b600060208201905081810360008301526101798184610126565b905092915050565b600081519050919050565b600082825260208201905092915050565b60005b838110156101bb5780820151818401526020810190506101a0565b838111156101ca576000848401525b50505050565b6000601f19601f8301169050919050565b6109e8806101f06000396000f3fe608060405234801561001057600080fd5b50600436106100365760003560e01c806353f5e3801461003b578063fc0c4f2e14610059575b600080fd5b610043610075565b6040516100509190610727565b60405180910390f35b610073600480360381019061006e9190610560565b6101bc565b005b60606000805480602002602001604051908101604052809291908181526020016000905b828210156101b357838290600052602060002090600202016040518060400160405290816000820160009054906101000a900473ffffffffffffffffffffffffffffffffffffffff1673ffffffffffffffffffffffffffffffffffffffff1673ffffffffffffffffffffffffffffffffffffffff168152602001600182018054610122906108e0565b80601f016020809104026020016040519081016040528092919081815260200182805461014e906108e0565b801561019b5780601f106101705761010080835404028352916020019161019b565b820191906000526020600020905b81548152906001019060200180831161017e57829003601f168201915b50505050508152505081526020019060010190610099565b50505050905090565b6101fc6040518060400160405280601281526020017f25732073656e64206d6573736167652025730000000000000000000000000000815250338361038d565b600060405180604001604052803373ffffffffffffffffffffffffffffffffffffffff16815260200183815250908060018154018082558091505060019003906000526020600020906002020160009091909190915060008201518160000160006101000a81548173ffffffffffffffffffffffffffffffffffffffff021916908373ffffffffffffffffffffffffffffffffffffffff16021790555060208201518160010190805190602001906102b5929190610455565b5050507f8da45d748eefefd09cc1491cd32086b6d6a0bd7063d08f05c94df9eb1404bd8033826040516102e99291906106f7565b60405180910390a150565b61038a816040516024016103089190610749565b6040516020818303038152906040527f41304fac000000000000000000000000000000000000000000000000000000007bffffffffffffffffffffffffffffffffffffffffffffffffffffffff19166020820180517bffffffffffffffffffffffffffffffffffffffffffffffffffffffff838183161783525050505061042c565b50565b6104278383836040516024016103a59392919061076b565b6040516020818303038152906040527fe0e9ad4f000000000000000000000000000000000000000000000000000000007bffffffffffffffffffffffffffffffffffffffffffffffffffffffff19166020820180517bffffffffffffffffffffffffffffffffffffffffffffffffffffffff838183161783525050505061042c565b505050565b60008151905060006a636f6e736f6c652e6c6f679050602083016000808483855afa5050505050565b828054610461906108e0565b90600052602060002090601f01602090048101928261048357600085556104ca565b82601f1061049c57805160ff19168380011785556104ca565b828001600101855582156104ca579182015b828111156104c95782518255916020019190600101906104ae565b5b5090506104d791906104db565b5090565b5b808211156104f45760008160009055506001016104dc565b5090565b600061050b610506846107d5565b6107b0565b90508281526020810184848401111561052357600080fd5b61052e84828561089e565b509392505050565b600082601f83011261054757600080fd5b81356105578482602086016104f8565b91505092915050565b60006020828403121561057257600080fd5b600082013567ffffffffffffffff81111561058c57600080fd5b61059884828501610536565b91505092915050565b60006105ad83836106ba565b905092915050565b6105be8161086c565b82525050565b6105cd8161086c565b82525050565b60006105de82610816565b6105e88185610839565b9350836020820285016105fa85610806565b8060005b85811015610636578484038952815161061785826105a1565b94506106228361082c565b925060208a019950506001810190506105fe565b50829750879550505050505092915050565b600061065382610821565b61065d818561084a565b935061066d8185602086016108ad565b610676816109a1565b840191505092915050565b600061068c82610821565b610696818561085b565b93506106a68185602086016108ad565b6106af816109a1565b840191505092915050565b60006040830160008301516106d260008601826105b5565b50602083015184820360208601526106ea8282610648565b9150508091505092915050565b600060408201905061070c60008301856105c4565b818103602083015261071e8184610681565b90509392505050565b6000602082019050818103600083015261074181846105d3565b905092915050565b600060208201905081810360008301526107638184610681565b905092915050565b600060608201905081810360008301526107858186610681565b905061079460208301856105c4565b81810360408301526107a68184610681565b9050949350505050565b60006107ba6107cb565b90506107c68282610912565b919050565b6000604051905090565b600067ffffffffffffffff8211156107f0576107ef610972565b5b6107f9826109a1565b9050602081019050919050565b6000819050602082019050919050565b600081519050919050565b600081519050919050565b6000602082019050919050565b600082825260208201905092915050565b600082825260208201905092915050565b600082825260208201905092915050565b60006108778261087e565b9050919050565b600073ffffffffffffffffffffffffffffffffffffffff82169050919050565b82818337600083830152505050565b60005b838110156108cb5780820151818401526020810190506108b0565b838111156108da576000848401525b50505050565b600060028204905060018216806108f857607f821691505b6020821081141561090c5761090b610943565b5b50919050565b61091b826109a1565b810181811067ffffffffffffffff8211171561093a57610939610972565b5b80604052505050565b7f4e487b7100000000000000000000000000000000000000000000000000000000600052602260045260246000fd5b7f4e487b7100000000000000000000000000000000000000000000000000000000600052604160045260246000fd5b6000601f19601f830116905091905056fea26469706673582212209eebbd9d728004b20c38a8b2e2bc2e12c0c0d339eec84749c7deb32a7fd6482264736f6c63430008040033",
  "linkReferences": {},
  "deployedLinkReferences": {}
}