{
  "_format": "hh-sol-artifact-1",
  "contractName": "NftCollection",
  "sourceName": "contracts/NftCollection.sol",
  "abi": [
    {
      "inputs": [],
      "stateMutability": "nonpayable",
      "type": "constructor"
    },
    {
      "anonymous": false,
      "inputs": [
        {
          "indexed": true,
          "internalType": "address",
          "name": "owner",
          "type": "address"
        },
        {
          "indexed": true,
          "internalType": "address",
          "name": "approved",
          "type": "address"
        },
        {
          "indexed": true,
          "internalType": "uint256",
          "name": "tokenId",
          "type": "uint256"
        }
      ],
      "name": "Approval",
      "type": "event"
    },
    {
      "anonymous": false,
      "inputs": [
        {
          "indexed": true,
          "internalType": "address",
          "name": "owner",
          "type": "address"
        },
        {
          "indexed": true,
          "internalType": "address",
          "name": "operator",
          "type": "address"
        },
        {
          "indexed": false,
          "internalType": "bool",
          "name": "approved",
          "type": "bool"
        }
      ],
      "name": "ApprovalForAll",
      "type": "event"
    },
    {
      "anonymous": false,
      "inputs": [
        {
          "indexed": false,
          "internalType": "address",
          "name": "sender",
          "type": "address"
        },
        {
          "indexed": false,
          "internalType": "uint256",
          "name": "tokenId",
          "type": "uint256"
        }
      ],
      "name": "NFTMinted",
      "type": "event"
    },
    {
      "anonymous": false,
      "inputs": [
        {
          "indexed": true,
          "internalType": "address",
          "name": "from",
          "type": "address"
        },
        {
          "indexed": true,
          "internalType": "address",
          "name": "to",
          "type": "address"
        },
        {
          "indexed": true,
          "internalType": "uint256",
          "name": "tokenId",
          "type": "uint256"
        }
      ],
      "name": "Transfer",
      "type": "event"
    },
    {
      "inputs": [
        {
          "internalType": "address",
          "name": "to",
          "type": "address"
        },
        {
          "internalType": "uint256",
          "name": "tokenId",
          "type": "uint256"
        }
      ],
      "name": "approve",
      "outputs": [],
      "stateMutability": "nonpayable",
      "type": "function"
    },
    {
      "inputs": [
        {
          "internalType": "address",
          "name": "owner",
          "type": "address"
        }
      ],
      "name": "balanceOf",
      "outputs": [
        {
          "internalType": "uint256",
          "name": "",
          "type": "uint256"
        }
      ],
      "stateMutability": "view",
      "type": "function"
    },
    {
      "inputs": [
        {
          "internalType": "uint256",
          "name": "tokenId",
          "type": "uint256"
        }
      ],
      "name": "getApproved",
      "outputs": [
        {
          "internalType": "address",
          "name": "",
          "type": "address"
        }
      ],
      "stateMutability": "view",
      "type": "function"
    },
    {
      "inputs": [
        {
          "internalType": "address",
          "name": "owner",
          "type": "address"
        },
        {
          "internalType": "address",
          "name": "operator",
          "type": "address"
        }
      ],
      "name": "isApprovedForAll",
      "outputs": [
        {
          "internalType": "bool",
          "name": "",
          "type": "bool"
        }
      ],
      "stateMutability": "view",
      "type": "function"
    },
    {
      "inputs": [],
      "name": "makeNft",
      "outputs": [],
      "stateMutability": "nonpayable",
      "type": "function"
    },
    {
      "inputs": [],
      "name": "name",
      "outputs": [
        {
          "internalType": "string",
          "name": "",
          "type": "string"
        }
      ],
      "stateMutability": "view",
      "type": "function"
    },
    {
      "inputs": [
        {
          "internalType": "uint256",
          "name": "tokenId",
          "type": "uint256"
        }
      ],
      "name": "ownerOf",
      "outputs": [
        {
          "internalType": "address",
          "name": "",
          "type": "address"
        }
      ],
      "stateMutability": "view",
      "type": "function"
    },
    {
      "inputs": [
        {
          "internalType": "address",
          "name": "from",
          "type": "address"
        },
        {
          "internalType": "address",
          "name": "to",
          "type": "address"
        },
        {
          "internalType": "uint256",
          "name": "tokenId",
          "type": "uint256"
        }
      ],
      "name": "safeTransferFrom",
      "outputs": [],
      "stateMutability": "nonpayable",
      "type": "function"
    },
    {
      "inputs": [
        {
          "internalType": "address",
          "name": "from",
          "type": "address"
        },
        {
          "internalType": "address",
          "name": "to",
          "type": "address"
        },
        {
          "internalType": "uint256",
          "name": "tokenId",
          "type": "uint256"
        },
        {
          "internalType": "bytes",
          "name": "_data",
          "type": "bytes"
        }
      ],
      "name": "safeTransferFrom",
      "outputs": [],
      "stateMutability": "nonpayable",
      "type": "function"
    },
    {
      "inputs": [
        {
          "internalType": "address",
          "name": "operator",
          "type": "address"
        },
        {
          "internalType": "bool",
          "name": "approved",
          "type": "bool"
        }
      ],
      "name": "setApprovalForAll",
      "outputs": [],
      "stateMutability": "nonpayable",
      "type": "function"
    },
    {
      "inputs": [
        {
          "internalType": "bytes4",
          "name": "interfaceId",
          "type": "bytes4"
        }
      ],
      "name": "supportsInterface",
      "outputs": [
        {
          "internalType": "bool",
          "name": "",
          "type": "bool"
        }
      ],
      "stateMutability": "view",
      "type": "function"
    },
    {
      "inputs": [],
      "name": "symbol",
      "outputs": [
        {
          "internalType": "string",
          "name": "",
          "type": "string"
        }
      ],
      "stateMutability": "view",
      "type": "function"
    },
    {
      "inputs": [
        {
          "internalType": "uint256",
          "name": "tokenId",
          "type": "uint256"
        }
      ],
      "name": "tokenURI",
      "outputs": [
        {
          "internalType": "string",
          "name": "",
          "type": "string"
        }
      ],
      "stateMutability": "view",
      "type": "function"
    },
    {
      "inputs": [
        {
          "internalType": "address",
          "name": "from",
          "type": "address"
        },
        {
          "internalType": "address",
          "name": "to",
          "type": "address"
        },
        {
          "internalType": "uint256",
          "name": "tokenId",
          "type": "uint256"
        }
      ],
      "name": "transferFrom",
      "outputs": [],
      "stateMutability": "nonpayable",
      "type": "function"
    }
  ],
  "bytecode": "0x60806040526040518061012001604052806040518060400160405280600381526020017fe590b4000000000000000000000000000000000000000000000000000000000081525081526020016040518060400160405280600381526020017fe8b5b5000000000000000000000000000000000000000000000000000000000081525081526020016040518060400160405280600381526020017fe992b1000000000000000000000000000000000000000000000000000000000081525081526020016040518060400160405280600381526020017fe5ad99000000000000000000000000000000000000000000000000000000000081525081526020016040518060400160405280600381526020017fe69d8e000000000000000000000000000000000000000000000000000000000081525081526020016040518060400160405280600381526020017fe591a8000000000000000000000000000000000000000000000000000000000081525081526020016040518060400160405280600381526020017fe98391000000000000000000000000000000000000000000000000000000000081525081526020016040518060400160405280600381526020017fe78e8b000000000000000000000000000000000000000000000000000000000081525081526020016040518060400160405280600681526020017fe585ace5ad990000000000000000000000000000000000000000000000000000815250815250600890600962000233929190620009cb565b506040518061012001604052806040518060400160405280600381526020017fe590b4000000000000000000000000000000000000000000000000000000000081525081526020016040518060400160405280600381526020017fe8b5b5000000000000000000000000000000000000000000000000000000000081525081526020016040518060400160405280600381526020017fe992b1000000000000000000000000000000000000000000000000000000000081525081526020016040518060400160405280600381526020017fe5ad99000000000000000000000000000000000000000000000000000000000081525081526020016040518060400160405280600381526020017fe69d8e000000000000000000000000000000000000000000000000000000000081525081526020016040518060400160405280600381526020017fe59bbd000000000000000000000000000000000000000000000000000000000081525081526020016040518060400160405280600381526020017fe98391000000000000000000000000000000000000000000000000000000000081525081526020016040518060400160405280600381526020017fe78e8b000000000000000000000000000000000000000000000000000000000081525081526020016040518060400160405280600681526020017fe585ace5ad990000000000000000000000000000000000000000000000000000815250815250600990600962000463929190620009cb565b506040518061012001604052806040518060400160405280600381526020017fe590b4000000000000000000000000000000000000000000000000000000000081525081526020016040518060400160405280600381526020017fe8b5b5000000000000000000000000000000000000000000000000000000000081525081526020016040518060400160405280600381526020017fe992b1000000000000000000000000000000000000000000000000000000000081525081526020016040518060400160405280600381526020017fe5ad99000000000000000000000000000000000000000000000000000000000081525081526020016040518060400160405280600381526020017fe69d8e000000000000000000000000000000000000000000000000000000000081525081526020016040518060400160405280600381526020017fe9bb8e000000000000000000000000000000000000000000000000000000000081525081526020016040518060400160405280600381526020017fe98391000000000000000000000000000000000000000000000000000000000081525081526020016040518060400160405280600381526020017fe78e8b000000000000000000000000000000000000000000000000000000000081525081526020016040518060400160405280600681526020017fe585ace5ad990000000000000000000000000000000000000000000000000000815250815250600a90600962000693929190620009cb565b5060405180608001604052806040518060400160405280600581526020017f677265656e00000000000000000000000000000000000000000000000000000081525081526020016040518060400160405280600481526020017f676f6c640000000000000000000000000000000000000000000000000000000081525081526020016040518060400160405280600481526020017f626c75650000000000000000000000000000000000000000000000000000000081525081526020016040518060400160405280600381526020017f7265640000000000000000000000000000000000000000000000000000000000815250815250600b9060046200079b92919062000a32565b506040518060a00160405280607781526020016200499260779139600c9080519060200190620007cd92919062000a99565b506040518060e0016040528060b38152602001620048df60b39139600d9080519060200190620007ff92919062000a99565b503480156200080d57600080fd5b506040518060400160405280600c81526020017f46696e616c46616e7461637900000000000000000000000000000000000000008152506040518060400160405280600281526020017f4d4b00000000000000000000000000000000000000000000000000000000000081525081600090805190602001906200089292919062000a99565b508060019080519060200190620008ab92919062000a99565b505050620008f96040518060400160405280601e81526020017f636f6e7374727563746f72206f66206d79204e465420636f6e74726163740000815250620008ff60201b62000f471760201c565b62000ce4565b6200099f8160405160240162000916919062000bf8565b6040516020818303038152906040527f41304fac000000000000000000000000000000000000000000000000000000007bffffffffffffffffffffffffffffffffffffffffffffffffffffffff19166020820180517bffffffffffffffffffffffffffffffffffffffffffffffffffffffff8381831617835250505050620009a260201b60201c565b50565b60008151905060006a636f6e736f6c652e6c6f679050602083016000808483855afa5050505050565b82805482825590600052602060002090810192821562000a1f579160200282015b8281111562000a1e57825182908051906020019062000a0d92919062000a99565b5091602001919060010190620009ec565b5b50905062000a2e919062000b2a565b5090565b82805482825590600052602060002090810192821562000a86579160200282015b8281111562000a8557825182908051906020019062000a7492919062000a99565b509160200191906001019062000a53565b5b50905062000a95919062000b2a565b5090565b82805462000aa79062000c6e565b90600052602060002090601f01602090048101928262000acb576000855562000b17565b82601f1062000ae657805160ff191683800117855562000b17565b8280016001018555821562000b17579182015b8281111562000b1657825182559160200191906001019062000af9565b5b50905062000b26919062000b52565b5090565b5b8082111562000b4e576000818162000b44919062000b71565b5060010162000b2b565b5090565b5b8082111562000b6d57600081600090555060010162000b53565b5090565b50805462000b7f9062000c6e565b6000825580601f1062000b93575062000bb4565b601f01602090049060005260206000209081019062000bb3919062000b52565b5b50565b600062000bc48262000c1c565b62000bd0818562000c27565b935062000be281856020860162000c38565b62000bed8162000cd3565b840191505092915050565b6000602082019050818103600083015262000c14818462000bb7565b905092915050565b600081519050919050565b600082825260208201905092915050565b60005b8381101562000c5857808201518184015260208101905062000c3b565b8381111562000c68576000848401525b50505050565b6000600282049050600182168062000c8757607f821691505b6020821081141562000c9e5762000c9d62000ca4565b5b50919050565b7f4e487b7100000000000000000000000000000000000000000000000000000000600052602260045260246000fd5b6000601f19601f8301169050919050565b613beb8062000cf46000396000f3fe608060405234801561001057600080fd5b50600436106100ea5760003560e01c806370a082311161008c578063a22cb46511610066578063a22cb46514610249578063b88d4fde14610265578063c87b56dd14610281578063e985e9c5146102b1576100ea565b806370a08231146101f15780637c80d0c71461022157806395d89b411461022b576100ea565b8063095ea7b3116100c8578063095ea7b31461016d57806323b872dd1461018957806342842e0e146101a55780636352211e146101c1576100ea565b806301ffc9a7146100ef57806306fdde031461011f578063081812fc1461013d575b600080fd5b6101096004803603810190610104919061264b565b6102e1565b6040516101169190612db4565b60405180910390f35b6101276103c3565b6040516101349190612dcf565b60405180910390f35b6101576004803603810190610152919061269d565b610455565b6040516101649190612d24565b60405180910390f35b6101876004803603810190610182919061260f565b6104da565b005b6101a3600480360381019061019e9190612509565b6105f2565b005b6101bf60048036038101906101ba9190612509565b610652565b005b6101db60048036038101906101d6919061269d565b610672565b6040516101e89190612d24565b60405180910390f35b61020b600480360381019061020691906124a4565b610724565b604051610218919061307b565b60405180910390f35b6102296107dc565b005b610233610c57565b6040516102409190612dcf565b60405180910390f35b610263600480360381019061025e91906125d3565b610ce9565b005b61027f600480360381019061027a9190612558565b610cff565b005b61029b6004803603810190610296919061269d565b610d61565b6040516102a89190612dcf565b60405180910390f35b6102cb60048036038101906102c691906124cd565b610eb3565b6040516102d89190612db4565b60405180910390f35b60007f80ac58cd000000000000000000000000000000000000000000000000000000007bffffffffffffffffffffffffffffffffffffffffffffffffffffffff1916827bffffffffffffffffffffffffffffffffffffffffffffffffffffffff191614806103ac57507f5b5e139f000000000000000000000000000000000000000000000000000000007bffffffffffffffffffffffffffffffffffffffffffffffffffffffff1916827bffffffffffffffffffffffffffffffffffffffffffffffffffffffff1916145b806103bc57506103bb82610fe0565b5b9050919050565b6060600080546103d29061330f565b80601f01602080910402602001604051908101604052809291908181526020018280546103fe9061330f565b801561044b5780601f106104205761010080835404028352916020019161044b565b820191906000526020600020905b81548152906001019060200180831161042e57829003601f168201915b5050505050905090565b60006104608261104a565b61049f576040517f08c379a000000000000000000000000000000000000000000000000000000000815260040161049690612ffb565b60405180910390fd5b6004600083815260200190815260200160002060009054906101000a900473ffffffffffffffffffffffffffffffffffffffff169050919050565b60006104e582610672565b90508073ffffffffffffffffffffffffffffffffffffffff168373ffffffffffffffffffffffffffffffffffffffff161415610556576040517f08c379a000000000000000000000000000000000000000000000000000000000815260040161054d9061303b565b60405180910390fd5b8073ffffffffffffffffffffffffffffffffffffffff166105756110b6565b73ffffffffffffffffffffffffffffffffffffffff1614806105a457506105a38161059e6110b6565b610eb3565b5b6105e3576040517f08c379a00000000000000000000000000000000000000000000000000000000081526004016105da90612f3b565b60405180910390fd5b6105ed83836110be565b505050565b6106036105fd6110b6565b82611177565b610642576040517f08c379a00000000000000000000000000000000000000000000000000000000081526004016106399061305b565b60405180910390fd5b61064d838383611255565b505050565b61066d83838360405180602001604052806000815250610cff565b505050565b6000806002600084815260200190815260200160002060009054906101000a900473ffffffffffffffffffffffffffffffffffffffff169050600073ffffffffffffffffffffffffffffffffffffffff168173ffffffffffffffffffffffffffffffffffffffff16141561071b576040517f08c379a000000000000000000000000000000000000000000000000000000000815260040161071290612f7b565b60405180910390fd5b80915050919050565b60008073ffffffffffffffffffffffffffffffffffffffff168273ffffffffffffffffffffffffffffffffffffffff161415610795576040517f08c379a000000000000000000000000000000000000000000000000000000000815260040161078c90612f5b565b60405180910390fd5b600360008373ffffffffffffffffffffffffffffffffffffffff1673ffffffffffffffffffffffffffffffffffffffff168152602001908152602001600020549050919050565b60006107e860076114bc565b90506000600880805490506108236107ff856114ca565b60405160200161080f9190612d02565b604051602081830303815290604052611677565b61082d91906133bb565b81548110610864577f4e487b7100000000000000000000000000000000000000000000000000000000600052603260045260246000fd5b9060005260206000200180546108799061330f565b80601f01602080910402602001604051908101604052809291908181526020018280546108a59061330f565b80156108f25780601f106108c7576101008083540402835291602001916108f2565b820191906000526020600020905b8154815290600101906020018083116108d557829003601f168201915b5050505050905060006009808054905061093261090e866114ca565b60405160200161091e9190612c57565b604051602081830303815290604052611677565b61093c91906133bb565b81548110610973577f4e487b7100000000000000000000000000000000000000000000000000000000600052603260045260246000fd5b9060005260206000200180546109889061330f565b80601f01602080910402602001604051908101604052809291908181526020018280546109b49061330f565b8015610a015780601f106109d657610100808354040283529160200191610a01565b820191906000526020600020905b8154815290600101906020018083116109e457829003601f168201915b505050505090506000600a8080549050610a41610a1d876114ca565b604051602001610a2d9190612c35565b604051602081830303815290604052611677565b610a4b91906133bb565b81548110610a82577f4e487b7100000000000000000000000000000000000000000000000000000000600052603260045260246000fd5b906000526020600020018054610a979061330f565b80601f0160208091040260200160405190810160405280929190818152602001828054610ac39061330f565b8015610b105780601f10610ae557610100808354040283529160200191610b10565b820191906000526020600020905b815481529060010190602001808311610af357829003601f168201915b505050505090506000838383604051602001610b2e93929190612bbb565b6040516020818303038152906040529050610b4933866116aa565b610b6485610b5f83610b5a896114ca565b6116c8565b611770565b610bea6040518060400160405280600b81526020017f746f6b656e207572693a20000000000000000000000000000000000000000000815250610baf83610baa896114ca565b6116c8565b6040518060400160405280600181526020017f0a000000000000000000000000000000000000000000000000000000000000008152506117e4565b610bf46007611883565b610c17604051806060016040528060258152602001613b51602591398633611899565b7f4cc0a9c4a99ddc700de1af2c9f916a7cbfdb71f14801ccff94061ad1ef8a80403386604051610c48929190612d8b565b60405180910390a15050505050565b606060018054610c669061330f565b80601f0160208091040260200160405190810160405280929190818152602001828054610c929061330f565b8015610cdf5780601f10610cb457610100808354040283529160200191610cdf565b820191906000526020600020905b815481529060010190602001808311610cc257829003601f168201915b5050505050905090565b610cfb610cf46110b6565b8383611938565b5050565b610d10610d0a6110b6565b83611177565b610d4f576040517f08c379a0000000000000000000000000000000000000000000000000000000008152600401610d469061305b565b60405180910390fd5b610d5b84848484611aa5565b50505050565b6060610d6c8261104a565b610dab576040517f08c379a0000000000000000000000000000000000000000000000000000000008152600401610da290612fdb565b60405180910390fd5b6000600660008481526020019081526020016000208054610dcb9061330f565b80601f0160208091040260200160405190810160405280929190818152602001828054610df79061330f565b8015610e445780601f10610e1957610100808354040283529160200191610e44565b820191906000526020600020905b815481529060010190602001808311610e2757829003601f168201915b505050505090506000610e55611b01565b9050600081511415610e6b578192505050610eae565b600082511115610ea0578082604051602001610e88929190612b97565b60405160208183030381529060405292505050610eae565b610ea984611b18565b925050505b919050565b6000600560008473ffffffffffffffffffffffffffffffffffffffff1673ffffffffffffffffffffffffffffffffffffffff16815260200190815260200160002060008373ffffffffffffffffffffffffffffffffffffffff1673ffffffffffffffffffffffffffffffffffffffff16815260200190815260200160002060009054906101000a900460ff16905092915050565b610fdd81604051602401610f5b9190612dcf565b6040516020818303038152906040527f41304fac000000000000000000000000000000000000000000000000000000007bffffffffffffffffffffffffffffffffffffffffffffffffffffffff19166020820180517bffffffffffffffffffffffffffffffffffffffffffffffffffffffff8381831617835250505050611bbf565b50565b60007f01ffc9a7000000000000000000000000000000000000000000000000000000007bffffffffffffffffffffffffffffffffffffffffffffffffffffffff1916827bffffffffffffffffffffffffffffffffffffffffffffffffffffffff1916149050919050565b60008073ffffffffffffffffffffffffffffffffffffffff166002600084815260200190815260200160002060009054906101000a900473ffffffffffffffffffffffffffffffffffffffff1673ffffffffffffffffffffffffffffffffffffffff1614159050919050565b600033905090565b816004600083815260200190815260200160002060006101000a81548173ffffffffffffffffffffffffffffffffffffffff021916908373ffffffffffffffffffffffffffffffffffffffff160217905550808273ffffffffffffffffffffffffffffffffffffffff1661113183610672565b73ffffffffffffffffffffffffffffffffffffffff167f8c5be1e5ebec7d5bd14f71427d1e84f3dd0314c0f7b2291e5b200ac8c7c3b92560405160405180910390a45050565b60006111828261104a565b6111c1576040517f08c379a00000000000000000000000000000000000000000000000000000000081526004016111b890612f1b565b60405180910390fd5b60006111cc83610672565b90508073ffffffffffffffffffffffffffffffffffffffff168473ffffffffffffffffffffffffffffffffffffffff16148061120e575061120d8185610eb3565b5b8061124c57508373ffffffffffffffffffffffffffffffffffffffff1661123484610455565b73ffffffffffffffffffffffffffffffffffffffff16145b91505092915050565b8273ffffffffffffffffffffffffffffffffffffffff1661127582610672565b73ffffffffffffffffffffffffffffffffffffffff16146112cb576040517f08c379a00000000000000000000000000000000000000000000000000000000081526004016112c290612e9b565b60405180910390fd5b600073ffffffffffffffffffffffffffffffffffffffff168273ffffffffffffffffffffffffffffffffffffffff16141561133b576040517f08c379a000000000000000000000000000000000000000000000000000000000815260040161133290612edb565b60405180910390fd5b611346838383611be8565b6113516000826110be565b6001600360008573ffffffffffffffffffffffffffffffffffffffff1673ffffffffffffffffffffffffffffffffffffffff16815260200190815260200160002060008282546113a19190613225565b925050819055506001600360008473ffffffffffffffffffffffffffffffffffffffff1673ffffffffffffffffffffffffffffffffffffffff16815260200190815260200160002060008282546113f89190613144565b92505081905550816002600083815260200190815260200160002060006101000a81548173ffffffffffffffffffffffffffffffffffffffff021916908373ffffffffffffffffffffffffffffffffffffffff160217905550808273ffffffffffffffffffffffffffffffffffffffff168473ffffffffffffffffffffffffffffffffffffffff167fddf252ad1be2c89b69c2b068fc378daa952ba7f163c4a11628f55a4df523b3ef60405160405180910390a46114b7838383611bed565b505050565b600081600001549050919050565b60606000821415611512576040518060400160405280600181526020017f30000000000000000000000000000000000000000000000000000000000000008152509050611672565b600082905060005b6000821461154457808061152d90613372565b915050600a8261153d919061319a565b915061151a565b60008167ffffffffffffffff811115611586577f4e487b7100000000000000000000000000000000000000000000000000000000600052604160045260246000fd5b6040519080825280601f01601f1916602001820160405280156115b85781602001600182028036833780820191505090505b5090505b6000851461166b576001826115d19190613225565b9150600a856115e091906133bb565b60306115ec9190613144565b60f81b818381518110611628577f4e487b7100000000000000000000000000000000000000000000000000000000600052603260045260246000fd5b60200101907effffffffffffffffffffffffffffffffffffffffffffffffffffffffffffff1916908160001a905350600a85611664919061319a565b94506115bc565b8093505050505b919050565b60008160405160200161168a9190612b80565b6040516020818303038152906040528051906020012060001c9050919050565b6116c4828260405180602001604052806000815250611bf2565b5050565b60606000836116fe6116da8686611c4d565b6040516020016116ea9190612b80565b604051602081830303815290604052611e12565b60405160200161170f929190612c9b565b6040516020818303038152906040529050611748816040516020016117349190612b80565b604051602081830303815290604052611e12565b6040516020016117589190612ce0565b60405160208183030381529060405291505092915050565b6117798261104a565b6117b8576040517f08c379a00000000000000000000000000000000000000000000000000000000081526004016117af90612f9b565b60405180910390fd5b806006600084815260200190815260200160002090805190602001906117df929190612330565b505050565b61187e8383836040516024016117fc93929190612df1565b6040516020818303038152906040527f2ced7cef000000000000000000000000000000000000000000000000000000007bffffffffffffffffffffffffffffffffffffffffffffffffffffffff19166020820180517bffffffffffffffffffffffffffffffffffffffffffffffffffffffff8381831617835250505050611bbf565b505050565b6001816000016000828254019250508190555050565b6119338383836040516024016118b193929190612e3d565b6040516020818303038152906040527fe3849f79000000000000000000000000000000000000000000000000000000007bffffffffffffffffffffffffffffffffffffffffffffffffffffffff19166020820180517bffffffffffffffffffffffffffffffffffffffffffffffffffffffff8381831617835250505050611bbf565b505050565b8173ffffffffffffffffffffffffffffffffffffffff168373ffffffffffffffffffffffffffffffffffffffff1614156119a7576040517f08c379a000000000000000000000000000000000000000000000000000000000815260040161199e90612efb565b60405180910390fd5b80600560008573ffffffffffffffffffffffffffffffffffffffff1673ffffffffffffffffffffffffffffffffffffffff16815260200190815260200160002060008473ffffffffffffffffffffffffffffffffffffffff1673ffffffffffffffffffffffffffffffffffffffff16815260200190815260200160002060006101000a81548160ff0219169083151502179055508173ffffffffffffffffffffffffffffffffffffffff168373ffffffffffffffffffffffffffffffffffffffff167f17307eab39ab6107e8899845ad3d59bd9653f200f220920489ca2b5937696c3183604051611a989190612db4565b60405180910390a3505050565b611ab0848484611255565b611abc84848484611f9c565b611afb576040517f08c379a0000000000000000000000000000000000000000000000000000000008152600401611af290612e7b565b60405180910390fd5b50505050565b606060405180602001604052806000815250905090565b6060611b238261104a565b611b62576040517f08c379a0000000000000000000000000000000000000000000000000000000008152600401611b599061301b565b60405180910390fd5b6000611b6c611b01565b90506000815111611b8c5760405180602001604052806000815250611bb7565b80611b96846114ca565b604051602001611ba7929190612b97565b6040516020818303038152906040525b915050919050565b60008151905060006a636f6e736f6c652e6c6f679050602083016000808483855afa5050505050565b505050565b505050565b611bfc8383612133565b611c096000848484611f9c565b611c48576040517f08c379a0000000000000000000000000000000000000000000000000000000008152600401611c3f90612e7b565b60405180910390fd5b505050565b60606000600b8080549050611c8085604051602001611c6c9190612c79565b604051602081830303815290604052611677565b611c8a91906133bb565b81548110611cc1577f4e487b7100000000000000000000000000000000000000000000000000000000600052603260045260246000fd5b906000526020600020018054611cd69061330f565b80601f0160208091040260200160405190810160405280929190818152602001828054611d029061330f565b8015611d4f5780601f10611d2457610100808354040283529160200191611d4f565b820191906000526020600020905b815481529060010190602001808311611d3257829003601f168201915b505050505090506000600c82600d87604051602001611d719493929190612bec565b6040516020818303038152906040529050611dc06040518060400160405280601581526020017f0a2d2d2d2d2d2d2d2d2d2d2d2d2d2d2d2d2d2d2d2d0000000000000000000000815250610f47565b611dc981610f47565b611e076040518060400160405280601581526020017f2d2d2d2d2d2d2d2d2d2d2d2d2d2d2d2d2d2d2d2d0a0000000000000000000000815250610f47565b809250505092915050565b6060600082511415611e3557604051806020016040528060008152509050611f97565b6000604051806060016040528060408152602001613b766040913990506000600360028551611e649190613144565b611e6e919061319a565b6004611e7a91906131cb565b67ffffffffffffffff811115611eb9577f4e487b7100000000000000000000000000000000000000000000000000000000600052604160045260246000fd5b6040519080825280601f01601f191660200182016040528015611eeb5781602001600182028036833780820191505090505b509050600182016020820185865187015b80821015611f57576003820191508151603f8160121c168501518453600184019350603f81600c1c168501518453600184019350603f8160061c168501518453600184019350603f8116850151845360018401935050611efc565b5050600386510660018114611f735760028114611f8657611f8e565b603d6001830353603d6002830353611f8e565b603d60018303535b50505080925050505b919050565b6000611fbd8473ffffffffffffffffffffffffffffffffffffffff1661230d565b15612126578373ffffffffffffffffffffffffffffffffffffffff1663150b7a02611fe66110b6565b8786866040518563ffffffff1660e01b81526004016120089493929190612d3f565b602060405180830381600087803b15801561202257600080fd5b505af192505050801561205357506040513d601f19601f820116820180604052508101906120509190612674565b60015b6120d6573d8060008114612083576040519150601f19603f3d011682016040523d82523d6000602084013e612088565b606091505b506000815114156120ce576040517f08c379a00000000000000000000000000000000000000000000000000000000081526004016120c590612e7b565b60405180910390fd5b805181602001fd5b63150b7a0260e01b7bffffffffffffffffffffffffffffffffffffffffffffffffffffffff1916817bffffffffffffffffffffffffffffffffffffffffffffffffffffffff19161491505061212b565b600190505b949350505050565b600073ffffffffffffffffffffffffffffffffffffffff168273ffffffffffffffffffffffffffffffffffffffff1614156121a3576040517f08c379a000000000000000000000000000000000000000000000000000000000815260040161219a90612fbb565b60405180910390fd5b6121ac8161104a565b156121ec576040517f08c379a00000000000000000000000000000000000000000000000000000000081526004016121e390612ebb565b60405180910390fd5b6121f860008383611be8565b6001600360008473ffffffffffffffffffffffffffffffffffffffff1673ffffffffffffffffffffffffffffffffffffffff16815260200190815260200160002060008282546122489190613144565b92505081905550816002600083815260200190815260200160002060006101000a81548173ffffffffffffffffffffffffffffffffffffffff021916908373ffffffffffffffffffffffffffffffffffffffff160217905550808273ffffffffffffffffffffffffffffffffffffffff16600073ffffffffffffffffffffffffffffffffffffffff167fddf252ad1be2c89b69c2b068fc378daa952ba7f163c4a11628f55a4df523b3ef60405160405180910390a461230960008383611bed565b5050565b6000808273ffffffffffffffffffffffffffffffffffffffff163b119050919050565b82805461233c9061330f565b90600052602060002090601f01602090048101928261235e57600085556123a5565b82601f1061237757805160ff19168380011785556123a5565b828001600101855582156123a5579182015b828111156123a4578251825591602001919060010190612389565b5b5090506123b291906123b6565b5090565b5b808211156123cf5760008160009055506001016123b7565b5090565b60006123e66123e1846130bb565b613096565b9050828152602081018484840111156123fe57600080fd5b6124098482856132cd565b509392505050565b60008135905061242081613af4565b92915050565b60008135905061243581613b0b565b92915050565b60008135905061244a81613b22565b92915050565b60008151905061245f81613b22565b92915050565b600082601f83011261247657600080fd5b81356124868482602086016123d3565b91505092915050565b60008135905061249e81613b39565b92915050565b6000602082840312156124b657600080fd5b60006124c484828501612411565b91505092915050565b600080604083850312156124e057600080fd5b60006124ee85828601612411565b92505060206124ff85828601612411565b9150509250929050565b60008060006060848603121561251e57600080fd5b600061252c86828701612411565b935050602061253d86828701612411565b925050604061254e8682870161248f565b9150509250925092565b6000806000806080858703121561256e57600080fd5b600061257c87828801612411565b945050602061258d87828801612411565b935050604061259e8782880161248f565b925050606085013567ffffffffffffffff8111156125bb57600080fd5b6125c787828801612465565b91505092959194509250565b600080604083850312156125e657600080fd5b60006125f485828601612411565b925050602061260585828601612426565b9150509250929050565b6000806040838503121561262257600080fd5b600061263085828601612411565b92505060206126418582860161248f565b9150509250929050565b60006020828403121561265d57600080fd5b600061266b8482850161243b565b91505092915050565b60006020828403121561268657600080fd5b600061269484828501612450565b91505092915050565b6000602082840312156126af57600080fd5b60006126bd8482850161248f565b91505092915050565b6126cf81613259565b82525050565b6126de8161326b565b82525050565b60006126ef82613101565b6126f98185613117565b93506127098185602086016132dc565b612712816134a8565b840191505092915050565b60006127288261310c565b6127328185613128565b93506127428185602086016132dc565b61274b816134a8565b840191505092915050565b60006127618261310c565b61276b8185613139565b935061277b8185602086016132dc565b80840191505092915050565b600081546127948161330f565b61279e8186613139565b945060018216600081146127b957600181146127ca576127fd565b60ff198316865281860193506127fd565b6127d3856130ec565b60005b838110156127f5578154818901526001820191506020810190506127d6565b838801955050505b50505092915050565b6000612813603283613128565b915061281e826134b9565b604082019050919050565b6000612836602583613128565b915061284182613508565b604082019050919050565b6000612859601c83613128565b915061286482613557565b602082019050919050565b600061287c602483613128565b915061288782613580565b604082019050919050565b600061289f601983613128565b91506128aa826135cf565b602082019050919050565b60006128c2602c83613128565b91506128cd826135f8565b604082019050919050565b60006128e5600d83613139565b91506128f082613647565b600d82019050919050565b6000612908600a83613139565b915061291382613670565b600a82019050919050565b600061292b605483613139565b915061293682613699565b605482019050919050565b600061294e603883613128565b91506129598261370e565b604082019050919050565b6000612971600b83613139565b915061297c8261375d565b600b82019050919050565b6000612994602a83613128565b915061299f82613786565b604082019050919050565b60006129b7602983613128565b91506129c2826137d5565b604082019050919050565b60006129da602e83613128565b91506129e582613824565b604082019050919050565b60006129fd600283613139565b9150612a0882613873565b600282019050919050565b6000612a20602083613128565b9150612a2b8261389c565b602082019050919050565b6000612a43603183613128565b9150612a4e826138c5565b604082019050919050565b6000612a66602c83613128565b9150612a7182613914565b604082019050919050565b6000612a89602f83613128565b9150612a9482613963565b604082019050919050565b6000612aac600583613139565b9150612ab7826139b2565b600582019050919050565b6000612acf600a83613139565b9150612ada826139db565b600a82019050919050565b6000612af2602183613128565b9150612afd82613a04565b604082019050919050565b6000612b15601d83613139565b9150612b2082613a53565b601d82019050919050565b6000612b38603183613128565b9150612b4382613a7c565b604082019050919050565b6000612b5b600a83613139565b9150612b6682613acb565b600a82019050919050565b612b7a816132c3565b82525050565b6000612b8c8284612756565b915081905092915050565b6000612ba38285612756565b9150612baf8284612756565b91508190509392505050565b6000612bc78286612756565b9150612bd38285612756565b9150612bdf8284612756565b9150819050949350505050565b6000612bf88287612787565b9150612c048286612756565b9150612c108285612787565b9150612c1c8284612756565b9150612c27826128d8565b915081905095945050505050565b6000612c40826128fb565b9150612c4c8284612756565b915081905092915050565b6000612c6282612964565b9150612c6e8284612756565b915081905092915050565b6000612c8482612a9f565b9150612c908284612756565b915081905092915050565b6000612ca682612ac2565b9150612cb28285612756565b9150612cbd8261291e565b9150612cc98284612756565b9150612cd4826129f0565b91508190509392505050565b6000612ceb82612b08565b9150612cf78284612756565b915081905092915050565b6000612d0d82612b4e565b9150612d198284612756565b915081905092915050565b6000602082019050612d3960008301846126c6565b92915050565b6000608082019050612d5460008301876126c6565b612d6160208301866126c6565b612d6e6040830185612b71565b8181036060830152612d8081846126e4565b905095945050505050565b6000604082019050612da060008301856126c6565b612dad6020830184612b71565b9392505050565b6000602082019050612dc960008301846126d5565b92915050565b60006020820190508181036000830152612de9818461271d565b905092915050565b60006060820190508181036000830152612e0b818661271d565b90508181036020830152612e1f818561271d565b90508181036040830152612e33818461271d565b9050949350505050565b60006060820190508181036000830152612e57818661271d565b9050612e666020830185612b71565b612e7360408301846126c6565b949350505050565b60006020820190508181036000830152612e9481612806565b9050919050565b60006020820190508181036000830152612eb481612829565b9050919050565b60006020820190508181036000830152612ed48161284c565b9050919050565b60006020820190508181036000830152612ef48161286f565b9050919050565b60006020820190508181036000830152612f1481612892565b9050919050565b60006020820190508181036000830152612f34816128b5565b9050919050565b60006020820190508181036000830152612f5481612941565b9050919050565b60006020820190508181036000830152612f7481612987565b9050919050565b60006020820190508181036000830152612f94816129aa565b9050919050565b60006020820190508181036000830152612fb4816129cd565b9050919050565b60006020820190508181036000830152612fd481612a13565b9050919050565b60006020820190508181036000830152612ff481612a36565b9050919050565b6000602082019050818103600083015261301481612a59565b9050919050565b6000602082019050818103600083015261303481612a7c565b9050919050565b6000602082019050818103600083015261305481612ae5565b9050919050565b6000602082019050818103600083015261307481612b2b565b9050919050565b60006020820190506130906000830184612b71565b92915050565b60006130a06130b1565b90506130ac8282613341565b919050565b6000604051905090565b600067ffffffffffffffff8211156130d6576130d5613479565b5b6130df826134a8565b9050602081019050919050565b60008190508160005260206000209050919050565b600081519050919050565b600081519050919050565b600082825260208201905092915050565b600082825260208201905092915050565b600081905092915050565b600061314f826132c3565b915061315a836132c3565b9250827fffffffffffffffffffffffffffffffffffffffffffffffffffffffffffffffff0382111561318f5761318e6133ec565b5b828201905092915050565b60006131a5826132c3565b91506131b0836132c3565b9250826131c0576131bf61341b565b5b828204905092915050565b60006131d6826132c3565b91506131e1836132c3565b9250817fffffffffffffffffffffffffffffffffffffffffffffffffffffffffffffffff048311821515161561321a576132196133ec565b5b828202905092915050565b6000613230826132c3565b915061323b836132c3565b92508282101561324e5761324d6133ec565b5b828203905092915050565b6000613264826132a3565b9050919050565b60008115159050919050565b60007fffffffff0000000000000000000000000000000000000000000000000000000082169050919050565b600073ffffffffffffffffffffffffffffffffffffffff82169050919050565b6000819050919050565b82818337600083830152505050565b60005b838110156132fa5780820151818401526020810190506132df565b83811115613309576000848401525b50505050565b6000600282049050600182168061332757607f821691505b6020821081141561333b5761333a61344a565b5b50919050565b61334a826134a8565b810181811067ffffffffffffffff8211171561336957613368613479565b5b80604052505050565b600061337d826132c3565b91507fffffffffffffffffffffffffffffffffffffffffffffffffffffffffffffffff8214156133b0576133af6133ec565b5b600182019050919050565b60006133c6826132c3565b91506133d1836132c3565b9250826133e1576133e061341b565b5b828206905092915050565b7f4e487b7100000000000000000000000000000000000000000000000000000000600052601160045260246000fd5b7f4e487b7100000000000000000000000000000000000000000000000000000000600052601260045260246000fd5b7f4e487b7100000000000000000000000000000000000000000000000000000000600052602260045260246000fd5b7f4e487b7100000000000000000000000000000000000000000000000000000000600052604160045260246000fd5b6000601f19601f8301169050919050565b7f4552433732313a207472616e7366657220746f206e6f6e20455243373231526560008201527f63656976657220696d706c656d656e7465720000000000000000000000000000602082015250565b7f4552433732313a207472616e736665722066726f6d20696e636f72726563742060008201527f6f776e6572000000000000000000000000000000000000000000000000000000602082015250565b7f4552433732313a20746f6b656e20616c7265616479206d696e74656400000000600082015250565b7f4552433732313a207472616e7366657220746f20746865207a65726f2061646460008201527f7265737300000000000000000000000000000000000000000000000000000000602082015250565b7f4552433732313a20617070726f766520746f2063616c6c657200000000000000600082015250565b7f4552433732313a206f70657261746f7220717565727920666f72206e6f6e657860008201527f697374656e7420746f6b656e0000000000000000000000000000000000000000602082015250565b7f3c2f746578743e3c2f7376673e00000000000000000000000000000000000000600082015250565b7f54686972645f576f726400000000000000000000000000000000000000000000600082015250565b7f222c20226465736372697074696f6e223a20224f68206d792072616e646f6d2060008201527f67656e657261746564204e4654222c2022696d616765223a2022646174613a6960208201527f6d6167652f7376672b786d6c3b6261736536342c000000000000000000000000604082015250565b7f4552433732313a20617070726f76652063616c6c6572206973206e6f74206f7760008201527f6e6572206e6f7220617070726f76656420666f7220616c6c0000000000000000602082015250565b7f5365636f6e645f576f7264000000000000000000000000000000000000000000600082015250565b7f4552433732313a2062616c616e636520717565727920666f7220746865207a6560008201527f726f206164647265737300000000000000000000000000000000000000000000602082015250565b7f4552433732313a206f776e657220717565727920666f72206e6f6e657869737460008201527f656e7420746f6b656e0000000000000000000000000000000000000000000000602082015250565b7f45524337323155524953746f726167653a2055524920736574206f66206e6f6e60008201527f6578697374656e7420746f6b656e000000000000000000000000000000000000602082015250565b7f227d000000000000000000000000000000000000000000000000000000000000600082015250565b7f4552433732313a206d696e7420746f20746865207a65726f2061646472657373600082015250565b7f45524337323155524953746f726167653a2055524920717565727920666f722060008201527f6e6f6e6578697374656e7420746f6b656e000000000000000000000000000000602082015250565b7f4552433732313a20617070726f76656420717565727920666f72206e6f6e657860008201527f697374656e7420746f6b656e0000000000000000000000000000000000000000602082015250565b7f4552433732314d657461646174613a2055524920717565727920666f72206e6f60008201527f6e6578697374656e7420746f6b656e0000000000000000000000000000000000602082015250565b7f636f6c6f72000000000000000000000000000000000000000000000000000000600082015250565b7f7b226e616d65223a202200000000000000000000000000000000000000000000600082015250565b7f4552433732313a20617070726f76616c20746f2063757272656e74206f776e6560008201527f7200000000000000000000000000000000000000000000000000000000000000602082015250565b7f646174613a6170706c69636174696f6e2f6a736f6e3b6261736536342c000000600082015250565b7f4552433732313a207472616e736665722063616c6c6572206973206e6f74206f60008201527f776e6572206e6f7220617070726f766564000000000000000000000000000000602082015250565b7f46697273745f576f726400000000000000000000000000000000000000000000600082015250565b613afd81613259565b8114613b0857600080fd5b50565b613b148161326b565b8114613b1f57600080fd5b50565b613b2b81613277565b8114613b3657600080fd5b50565b613b42816132c3565b8114613b4d57600080fd5b5056fe416e204e465420772f20494420257320686173206265656e206d696e74656420746f2025734142434445464748494a4b4c4d4e4f505152535455565758595a6162636465666768696a6b6c6d6e6f707172737475767778797a303132333435363738392b2fa264697066735822122054fcd6e79c40f8fc912d76ceeacef062578005d6ba726d37ea97d5be220eaac864736f6c634300080400333b20666f6e742d66616d696c793a2073657269663b20666f6e742d73697a653a20323470783b207d3c2f7374796c653e3c726563742077696474683d273130302527206865696768743d2731303025272066696c6c3d27626c61636b27202f3e3c7465787420783d273530252720793d273530252720636c6173733d27626173652720646f6d696e616e742d626173656c696e653d276d6964646c652720746578742d616e63686f723d276d6964646c65273e3c73766720786d6c6e733d27687474703a2f2f7777772e77332e6f72672f323030302f73766727207072657365727665417370656374526174696f3d27784d696e594d696e206d656574272076696577426f783d273020302033353020333530273e3c7374796c653e2e62617365207b2066696c6c3a20",
  "linkReferences": {},
  "deployedLinkReferences": {}
}